{"contracts/TransferManager.sol":{"TransferManager":{"abi":[{"inputs":[{"internalType":"address","name":"_token","type":"address"}],"stateMutability":"nonpayable","type":"constructor"},{"inputs":[{"internalType":"address","name":"owner","type":"address"}],"name":"OwnableInvalidOwner","type":"error"},{"inputs":[{"internalType":"address","name":"account","type":"address"}],"name":"OwnableUnauthorizedAccount","type":"error"},{"inputs":[{"internalType":"address","name":"token","type":"address"}],"name":"SafeERC20FailedOperation","type":"error"},{"anonymous":false,"inputs":[{"indexed":true,"internalType":"address","name":"previousOwner","type":"address"},{"indexed":true,"internalType":"address","name":"newOwner","type":"address"}],"name":"OwnershipTransferred","type":"event"},{"inputs":[{"internalType":"uint256","name":"amount","type":"uint256"}],"name":"deposit","outputs":[],"stateMutability":"nonpayable","type":"function"},{"inputs":[],"name":"owner","outputs":[{"internalType":"address","name":"","type":"address"}],"stateMutability":"view","type":"function"},{"inputs":[{"internalType":"address","name":"recipient","type":"address"},{"internalType":"uint256","name":"amount","type":"uint256"}],"name":"release","outputs":[],"stateMutability":"nonpayable","type":"function"},{"inputs":[],"name":"renounceOwnership","outputs":[],"stateMutability":"nonpayable","type":"function"},{"inputs":[],"name":"token","outputs":[{"internalType":"contract IERC20","name":"","type":"address"}],"stateMutability":"view","type":"function"},{"inputs":[{"internalType":"address","name":"newOwner","type":"address"}],"name":"transferOwnership","outputs":[],"stateMutability":"nonpayable","type":"function"}],"evm":{"bytecode":{"linkReferences":{},"object":"60a06040523480156200001157600080fd5b5060405162000ed438038062000ed483398181016040528101906200003791906200029a565b33600073ffffffffffffffffffffffffffffffffffffffff168173ffffffffffffffffffffffffffffffffffffffff1603620000ad5760006040517f1e4fbdf7000000000000000000000000000000000000000000000000000000008152600401620000a49190620002dd565b60405180910390fd5b620000be816200016c60201b60201c565b50600073ffffffffffffffffffffffffffffffffffffffff168173ffffffffffffffffffffffffffffffffffffffff160362000131576040517f08c379a000000000000000000000000000000000000000000000000000000000815260040162000128906200035b565b60405180910390fd5b8073ffffffffffffffffffffffffffffffffffffffff1660808173ffffffffffffffffffffffffffffffffffffffff1681525050506200037d565b60008060009054906101000a900473ffffffffffffffffffffffffffffffffffffffff169050816000806101000a81548173ffffffffffffffffffffffffffffffffffffffff021916908373ffffffffffffffffffffffffffffffffffffffff1602179055508173ffffffffffffffffffffffffffffffffffffffff168173ffffffffffffffffffffffffffffffffffffffff167f8be0079c531659141344cd1fd0a4f28419497f9722a3daafe3b4186f6b6457e060405160405180910390a35050565b600080fd5b600073ffffffffffffffffffffffffffffffffffffffff82169050919050565b6000620002628262000235565b9050919050565b620002748162000255565b81146200028057600080fd5b50565b600081519050620002948162000269565b92915050565b600060208284031215620002b357620002b262000230565b5b6000620002c38482850162000283565b91505092915050565b620002d78162000255565b82525050565b6000602082019050620002f46000830184620002cc565b92915050565b600082825260208201905092915050565b7f546f6b656e20616464726573732063616e6e6f74206265207a65726f00000000600082015250565b600062000343601c83620002fa565b915062000350826200030b565b602082019050919050565b60006020820190508181036000830152620003768162000334565b9050919050565b608051610b26620003ae6000396000818161017a0152818161025b0152818161032b01526103fb0152610b266000f3fe608060405234801561001057600080fd5b50600436106100625760003560e01c80630357371d14610067578063715018a6146100835780638da5cb5b1461008d578063b6b55f25146100ab578063f2fde38b146100c7578063fc0c546a146100e3575b600080fd5b610081600480360381019061007c91906107ac565b610101565b005b61008b6102a3565b005b6100956102b7565b6040516100a291906107fb565b60405180910390f35b6100c560048036038101906100c09190610816565b6102e0565b005b6100e160048036038101906100dc9190610843565b610373565b005b6100eb6103f9565b6040516100f891906108cf565b60405180910390f35b61010961041d565b600073ffffffffffffffffffffffffffffffffffffffff168273ffffffffffffffffffffffffffffffffffffffff1603610178576040517f08c379a000000000000000000000000000000000000000000000000000000000815260040161016f90610947565b60405180910390fd5b7f000000000000000000000000000000000000000000000000000000000000000073ffffffffffffffffffffffffffffffffffffffff166370a08231306040518263ffffffff1660e01b81526004016101d191906107fb565b602060405180830381865afa1580156101ee573d6000803e3d6000fd5b505050506040513d601f19601f82011682018060405250810190610212919061097c565b811115610254576040517f08c379a000000000000000000000000000000000000000000000000000000000815260040161024b906109f5565b60405180910390fd5b61029f82827f000000000000000000000000000000000000000000000000000000000000000073ffffffffffffffffffffffffffffffffffffffff166104a49092919063ffffffff16565b5050565b6102ab61041d565b6102b56000610523565b565b60008060009054906101000a900473ffffffffffffffffffffffffffffffffffffffff16905090565b60008111610323576040517f08c379a000000000000000000000000000000000000000000000000000000000815260040161031a90610a61565b60405180910390fd5b6103703330837f000000000000000000000000000000000000000000000000000000000000000073ffffffffffffffffffffffffffffffffffffffff166105e7909392919063ffffffff16565b50565b61037b61041d565b600073ffffffffffffffffffffffffffffffffffffffff168173ffffffffffffffffffffffffffffffffffffffff16036103ed5760006040517f1e4fbdf70000000000000000000000000000000000000000000000000000000081526004016103e491906107fb565b60405180910390fd5b6103f681610523565b50565b7f000000000000000000000000000000000000000000000000000000000000000081565b610425610669565b73ffffffffffffffffffffffffffffffffffffffff166104436102b7565b73ffffffffffffffffffffffffffffffffffffffff16146104a257610466610669565b6040517f118cdaa700000000000000000000000000000000000000000000000000000000815260040161049991906107fb565b60405180910390fd5b565b61051e838473ffffffffffffffffffffffffffffffffffffffff1663a9059cbb85856040516024016104d7929190610a90565b604051602081830303815290604052915060e01b6020820180517bffffffffffffffffffffffffffffffffffffffffffffffffffffffff8381831617835250505050610671565b505050565b60008060009054906101000a900473ffffffffffffffffffffffffffffffffffffffff169050816000806101000a81548173ffffffffffffffffffffffffffffffffffffffff021916908373ffffffffffffffffffffffffffffffffffffffff1602179055508173ffffffffffffffffffffffffffffffffffffffff168173ffffffffffffffffffffffffffffffffffffffff167f8be0079c531659141344cd1fd0a4f28419497f9722a3daafe3b4186f6b6457e060405160405180910390a35050565b610663848573ffffffffffffffffffffffffffffffffffffffff166323b872dd86868660405160240161061c93929190610ab9565b604051602081830303815290604052915060e01b6020820180517bffffffffffffffffffffffffffffffffffffffffffffffffffffffff8381831617835250505050610671565b50505050565b600033905090565b600080602060008451602086016000885af180610694576040513d6000823e3d81fd5b3d9250600051915050600082146106af5760018114156106cb565b60008473ffffffffffffffffffffffffffffffffffffffff163b145b1561070d57836040517f5274afe700000000000000000000000000000000000000000000000000000000815260040161070491906107fb565b60405180910390fd5b50505050565b600080fd5b600073ffffffffffffffffffffffffffffffffffffffff82169050919050565b600061074382610718565b9050919050565b61075381610738565b811461075e57600080fd5b50565b6000813590506107708161074a565b92915050565b6000819050919050565b61078981610776565b811461079457600080fd5b50565b6000813590506107a681610780565b92915050565b600080604083850312156107c3576107c2610713565b5b60006107d185828601610761565b92505060206107e285828601610797565b9150509250929050565b6107f581610738565b82525050565b600060208201905061081060008301846107ec565b92915050565b60006020828403121561082c5761082b610713565b5b600061083a84828501610797565b91505092915050565b60006020828403121561085957610858610713565b5b600061086784828501610761565b91505092915050565b6000819050919050565b600061089561089061088b84610718565b610870565b610718565b9050919050565b60006108a78261087a565b9050919050565b60006108b98261089c565b9050919050565b6108c9816108ae565b82525050565b60006020820190506108e460008301846108c0565b92915050565b600082825260208201905092915050565b7f526563697069656e7420616464726573732063616e6e6f74206265207a65726f600082015250565b60006109316020836108ea565b915061093c826108fb565b602082019050919050565b6000602082019050818103600083015261096081610924565b9050919050565b60008151905061097681610780565b92915050565b60006020828403121561099257610991610713565b5b60006109a084828501610967565b91505092915050565b7f496e73756666696369656e7420636f6e74726163742062616c616e6365000000600082015250565b60006109df601d836108ea565b91506109ea826109a9565b602082019050919050565b60006020820190508181036000830152610a0e816109d2565b9050919050565b7f416d6f756e74206d7573742062652067726561746572207468616e207a65726f600082015250565b6000610a4b6020836108ea565b9150610a5682610a15565b602082019050919050565b60006020820190508181036000830152610a7a81610a3e565b9050919050565b610a8a81610776565b82525050565b6000604082019050610aa560008301856107ec565b610ab26020830184610a81565b9392505050565b6000606082019050610ace60008301866107ec565b610adb60208301856107ec565b610ae86040830184610a81565b94935050505056fea264697066735822122059d8c83f1db8c781e1bea8673240ee8fa8eae355fecd85d9b014608c078e9d0064736f6c63430008140033","opcodes":"PUSH1 0xA0 PUSH1 0x40 MSTORE CALLVALUE DUP1 ISZERO PUSH3 0x11 JUMPI PUSH1 0x0 DUP1 REVERT JUMPDEST POP PUSH1 0x40 MLOAD PUSH3 0xED4 CODESIZE SUB DUP1 PUSH3 0xED4 DUP4 CODECOPY DUP2 DUP2 ADD PUSH1 0x40 MSTORE DUP2 ADD SWAP1 PUSH3 0x37 SWAP2 SWAP1 PUSH3 0x29A JUMP JUMPDEST CALLER PUSH1 0x0 PUSH20 0xFFFFFFFFFFFFFFFFFFFFFFFFFFFFFFFFFFFFFFFF AND DUP2 PUSH20 0xFFFFFFFFFFFFFFFFFFFFFFFFFFFFFFFFFFFFFFFF AND SUB PUSH3 0xAD JUMPI PUSH1 0x0 PUSH1 0x40 MLOAD PUSH32 0x1E4FBDF700000000000000000000000000000000000000000000000000000000 DUP2 MSTORE PUSH1 0x4 ADD PUSH3 0xA4 SWAP2 SWAP1 PUSH3 0x2DD JUMP JUMPDEST PUSH1 0x40 MLOAD DUP1 SWAP2 SUB SWAP1 REVERT JUMPDEST PUSH3 0xBE DUP2 PUSH3 0x16C PUSH1 0x20 SHL PUSH1 0x20 SHR JUMP JUMPDEST POP PUSH1 0x0 PUSH20 0xFFFFFFFFFFFFFFFFFFFFFFFFFFFFFFFFFFFFFFFF AND DUP2 PUSH20 0xFFFFFFFFFFFFFFFFFFFFFFFFFFFFFFFFFFFFFFFF AND SUB PUSH3 0x131 JUMPI PUSH1 0x40 MLOAD PUSH32 0x8C379A000000000000000000000000000000000000000000000000000000000 DUP2 MSTORE PUSH1 0x4 ADD PUSH3 0x128 SWAP1 PUSH3 0x35B JUMP JUMPDEST PUSH1 0x40 MLOAD DUP1 SWAP2 SUB SWAP1 REVERT JUMPDEST DUP1 PUSH20 0xFFFFFFFFFFFFFFFFFFFFFFFFFFFFFFFFFFFFFFFF AND PUSH1 0x80 DUP2 PUSH20 0xFFFFFFFFFFFFFFFFFFFFFFFFFFFFFFFFFFFFFFFF AND DUP2 MSTORE POP POP POP PUSH3 0x37D JUMP JUMPDEST PUSH1 0x0 DUP1 PUSH1 0x0 SWAP1 SLOAD SWAP1 PUSH2 0x100 EXP SWAP1 DIV PUSH20 0xFFFFFFFFFFFFFFFFFFFFFFFFFFFFFFFFFFFFFFFF AND SWAP1 POP DUP2 PUSH1 0x0 DUP1 PUSH2 0x100 EXP DUP2 SLOAD DUP2 PUSH20 0xFFFFFFFFFFFFFFFFFFFFFFFFFFFFFFFFFFFFFFFF MUL NOT AND SWAP1 DUP4 PUSH20 0xFFFFFFFFFFFFFFFFFFFFFFFFFFFFFFFFFFFFFFFF AND MUL OR SWAP1 SSTORE POP DUP2 PUSH20 0xFFFFFFFFFFFFFFFFFFFFFFFFFFFFFFFFFFFFFFFF AND DUP2 PUSH20 0xFFFFFFFFFFFFFFFFFFFFFFFFFFFFFFFFFFFFFFFF AND PUSH32 0x8BE0079C531659141344CD1FD0A4F28419497F9722A3DAAFE3B4186F6B6457E0 PUSH1 0x40 MLOAD PUSH1 0x40 MLOAD DUP1 SWAP2 SUB SWAP1 LOG3 POP POP JUMP JUMPDEST PUSH1 0x0 DUP1 REVERT JUMPDEST PUSH1 0x0 PUSH20 0xFFFFFFFFFFFFFFFFFFFFFFFFFFFFFFFFFFFFFFFF DUP3 AND SWAP1 POP SWAP2 SWAP1 POP JUMP JUMPDEST PUSH1 0x0 PUSH3 0x262 DUP3 PUSH3 0x235 JUMP JUMPDEST SWAP1 POP SWAP2 SWAP1 POP JUMP JUMPDEST PUSH3 0x274 DUP2 PUSH3 0x255 JUMP JUMPDEST DUP2 EQ PUSH3 0x280 JUMPI PUSH1 0x0 DUP1 REVERT JUMPDEST POP JUMP JUMPDEST PUSH1 0x0 DUP2 MLOAD SWAP1 POP PUSH3 0x294 DUP2 PUSH3 0x269 JUMP JUMPDEST SWAP3 SWAP2 POP POP JUMP JUMPDEST PUSH1 0x0 PUSH1 0x20 DUP3 DUP5 SUB SLT ISZERO PUSH3 0x2B3 JUMPI PUSH3 0x2B2 PUSH3 0x230 JUMP JUMPDEST JUMPDEST PUSH1 0x0 PUSH3 0x2C3 DUP5 DUP3 DUP6 ADD PUSH3 0x283 JUMP JUMPDEST SWAP2 POP POP SWAP3 SWAP2 POP POP JUMP JUMPDEST PUSH3 0x2D7 DUP2 PUSH3 0x255 JUMP JUMPDEST DUP3 MSTORE POP POP JUMP JUMPDEST PUSH1 0x0 PUSH1 0x20 DUP3 ADD SWAP1 POP PUSH3 0x2F4 PUSH1 0x0 DUP4 ADD DUP5 PUSH3 0x2CC JUMP JUMPDEST SWAP3 SWAP2 POP POP JUMP JUMPDEST PUSH1 0x0 DUP3 DUP3 MSTORE PUSH1 0x20 DUP3 ADD SWAP1 POP SWAP3 SWAP2 POP POP JUMP JUMPDEST PUSH32 0x546F6B656E20616464726573732063616E6E6F74206265207A65726F00000000 PUSH1 0x0 DUP3 ADD MSTORE POP JUMP JUMPDEST PUSH1 0x0 PUSH3 0x343 PUSH1 0x1C DUP4 PUSH3 0x2FA JUMP JUMPDEST SWAP2 POP PUSH3 0x350 DUP3 PUSH3 0x30B JUMP JUMPDEST PUSH1 0x20 DUP3 ADD SWAP1 POP SWAP2 SWAP1 POP JUMP JUMPDEST PUSH1 0x0 PUSH1 0x20 DUP3 ADD SWAP1 POP DUP2 DUP2 SUB PUSH1 0x0 DUP4 ADD MSTORE PUSH3 0x376 DUP2 PUSH3 0x334 JUMP JUMPDEST SWAP1 POP SWAP2 SWAP1 POP JUMP JUMPDEST PUSH1 0x80 MLOAD PUSH2 0xB26 PUSH3 0x3AE PUSH1 0x0 CODECOPY PUSH1 0x0 DUP2 DUP2 PUSH2 0x17A ADD MSTORE DUP2 DUP2 PUSH2 0x25B ADD MSTORE DUP2 DUP2 PUSH2 0x32B ADD MSTORE PUSH2 0x3FB ADD MSTORE PUSH2 0xB26 PUSH1 0x0 RETURN INVALID PUSH1 0x80 PUSH1 0x40 MSTORE CALLVALUE DUP1 ISZERO PUSH2 0x10 JUMPI PUSH1 0x0 DUP1 REVERT JUMPDEST POP PUSH1 0x4 CALLDATASIZE LT PUSH2 0x62 JUMPI PUSH1 0x0 CALLDATALOAD PUSH1 0xE0 SHR DUP1 PUSH4 0x357371D EQ PUSH2 0x67 JUMPI DUP1 PUSH4 0x715018A6 EQ PUSH2 0x83 JUMPI DUP1 PUSH4 0x8DA5CB5B EQ PUSH2 0x8D JUMPI DUP1 PUSH4 0xB6B55F25 EQ PUSH2 0xAB JUMPI DUP1 PUSH4 0xF2FDE38B EQ PUSH2 0xC7 JUMPI DUP1 PUSH4 0xFC0C546A EQ PUSH2 0xE3 JUMPI JUMPDEST PUSH1 0x0 DUP1 REVERT JUMPDEST PUSH2 0x81 PUSH1 0x4 DUP1 CALLDATASIZE SUB DUP2 ADD SWAP1 PUSH2 0x7C SWAP2 SWAP1 PUSH2 0x7AC JUMP JUMPDEST PUSH2 0x101 JUMP JUMPDEST STOP JUMPDEST PUSH2 0x8B PUSH2 0x2A3 JUMP JUMPDEST STOP JUMPDEST PUSH2 0x95 PUSH2 0x2B7 JUMP JUMPDEST PUSH1 0x40 MLOAD PUSH2 0xA2 SWAP2 SWAP1 PUSH2 0x7FB JUMP JUMPDEST PUSH1 0x40 MLOAD DUP1 SWAP2 SUB SWAP1 RETURN JUMPDEST PUSH2 0xC5 PUSH1 0x4 DUP1 CALLDATASIZE SUB DUP2 ADD SWAP1 PUSH2 0xC0 SWAP2 SWAP1 PUSH2 0x816 JUMP JUMPDEST PUSH2 0x2E0 JUMP JUMPDEST STOP JUMPDEST PUSH2 0xE1 PUSH1 0x4 DUP1 CALLDATASIZE SUB DUP2 ADD SWAP1 PUSH2 0xDC SWAP2 SWAP1 PUSH2 0x843 JUMP JUMPDEST PUSH2 0x373 JUMP JUMPDEST STOP JUMPDEST PUSH2 0xEB PUSH2 0x3F9 JUMP JUMPDEST PUSH1 0x40 MLOAD PUSH2 0xF8 SWAP2 SWAP1 PUSH2 0x8CF JUMP JUMPDEST PUSH1 0x40 MLOAD DUP1 SWAP2 SUB SWAP1 RETURN JUMPDEST PUSH2 0x109 PUSH2 0x41D JUMP JUMPDEST PUSH1 0x0 PUSH20 0xFFFFFFFFFFFFFFFFFFFFFFFFFFFFFFFFFFFFFFFF AND DUP3 PUSH20 0xFFFFFFFFFFFFFFFFFFFFFFFFFFFFFFFFFFFFFFFF AND SUB PUSH2 0x178 JUMPI PUSH1 0x40 MLOAD PUSH32 0x8C379A000000000000000000000000000000000000000000000000000000000 DUP2 MSTORE PUSH1 0x4 ADD PUSH2 0x16F SWAP1 PUSH2 0x947 JUMP JUMPDEST PUSH1 0x40 MLOAD DUP1 SWAP2 SUB SWAP1 REVERT JUMPDEST PUSH32 0x0 PUSH20 0xFFFFFFFFFFFFFFFFFFFFFFFFFFFFFFFFFFFFFFFF AND PUSH4 0x70A08231 ADDRESS PUSH1 0x40 MLOAD DUP3 PUSH4 0xFFFFFFFF AND PUSH1 0xE0 SHL DUP2 MSTORE PUSH1 0x4 ADD PUSH2 0x1D1 SWAP2 SWAP1 PUSH2 0x7FB JUMP JUMPDEST PUSH1 0x20 PUSH1 0x40 MLOAD DUP1 DUP4 SUB DUP2 DUP7 GAS STATICCALL ISZERO DUP1 ISZERO PUSH2 0x1EE JUMPI RETURNDATASIZE PUSH1 0x0 DUP1 RETURNDATACOPY RETURNDATASIZE PUSH1 0x0 REVERT JUMPDEST POP POP POP POP PUSH1 0x40 MLOAD RETURNDATASIZE PUSH1 0x1F NOT PUSH1 0x1F DUP3 ADD AND DUP3 ADD DUP1 PUSH1 0x40 MSTORE POP DUP2 ADD SWAP1 PUSH2 0x212 SWAP2 SWAP1 PUSH2 0x97C JUMP JUMPDEST DUP2 GT ISZERO PUSH2 0x254 JUMPI PUSH1 0x40 MLOAD PUSH32 0x8C379A000000000000000000000000000000000000000000000000000000000 DUP2 MSTORE PUSH1 0x4 ADD PUSH2 0x24B SWAP1 PUSH2 0x9F5 JUMP JUMPDEST PUSH1 0x40 MLOAD DUP1 SWAP2 SUB SWAP1 REVERT JUMPDEST PUSH2 0x29F DUP3 DUP3 PUSH32 0x0 PUSH20 0xFFFFFFFFFFFFFFFFFFFFFFFFFFFFFFFFFFFFFFFF AND PUSH2 0x4A4 SWAP1 SWAP3 SWAP2 SWAP1 PUSH4 0xFFFFFFFF AND JUMP JUMPDEST POP POP JUMP JUMPDEST PUSH2 0x2AB PUSH2 0x41D JUMP JUMPDEST PUSH2 0x2B5 PUSH1 0x0 PUSH2 0x523 JUMP JUMPDEST JUMP JUMPDEST PUSH1 0x0 DUP1 PUSH1 0x0 SWAP1 SLOAD SWAP1 PUSH2 0x100 EXP SWAP1 DIV PUSH20 0xFFFFFFFFFFFFFFFFFFFFFFFFFFFFFFFFFFFFFFFF AND SWAP1 POP SWAP1 JUMP JUMPDEST PUSH1 0x0 DUP2 GT PUSH2 0x323 JUMPI PUSH1 0x40 MLOAD PUSH32 0x8C379A000000000000000000000000000000000000000000000000000000000 DUP2 MSTORE PUSH1 0x4 ADD PUSH2 0x31A SWAP1 PUSH2 0xA61 JUMP JUMPDEST PUSH1 0x40 MLOAD DUP1 SWAP2 SUB SWAP1 REVERT JUMPDEST PUSH2 0x370 CALLER ADDRESS DUP4 PUSH32 0x0 PUSH20 0xFFFFFFFFFFFFFFFFFFFFFFFFFFFFFFFFFFFFFFFF AND PUSH2 0x5E7 SWAP1 SWAP4 SWAP3 SWAP2 SWAP1 PUSH4 0xFFFFFFFF AND JUMP JUMPDEST POP JUMP JUMPDEST PUSH2 0x37B PUSH2 0x41D JUMP JUMPDEST PUSH1 0x0 PUSH20 0xFFFFFFFFFFFFFFFFFFFFFFFFFFFFFFFFFFFFFFFF AND DUP2 PUSH20 0xFFFFFFFFFFFFFFFFFFFFFFFFFFFFFFFFFFFFFFFF AND SUB PUSH2 0x3ED JUMPI PUSH1 0x0 PUSH1 0x40 MLOAD PUSH32 0x1E4FBDF700000000000000000000000000000000000000000000000000000000 DUP2 MSTORE PUSH1 0x4 ADD PUSH2 0x3E4 SWAP2 SWAP1 PUSH2 0x7FB JUMP JUMPDEST PUSH1 0x40 MLOAD DUP1 SWAP2 SUB SWAP1 REVERT JUMPDEST PUSH2 0x3F6 DUP2 PUSH2 0x523 JUMP JUMPDEST POP JUMP JUMPDEST PUSH32 0x0 DUP2 JUMP JUMPDEST PUSH2 0x425 PUSH2 0x669 JUMP JUMPDEST PUSH20 0xFFFFFFFFFFFFFFFFFFFFFFFFFFFFFFFFFFFFFFFF AND PUSH2 0x443 PUSH2 0x2B7 JUMP JUMPDEST PUSH20 0xFFFFFFFFFFFFFFFFFFFFFFFFFFFFFFFFFFFFFFFF AND EQ PUSH2 0x4A2 JUMPI PUSH2 0x466 PUSH2 0x669 JUMP JUMPDEST PUSH1 0x40 MLOAD PUSH32 0x118CDAA700000000000000000000000000000000000000000000000000000000 DUP2 MSTORE PUSH1 0x4 ADD PUSH2 0x499 SWAP2 SWAP1 PUSH2 0x7FB JUMP JUMPDEST PUSH1 0x40 MLOAD DUP1 SWAP2 SUB SWAP1 REVERT JUMPDEST JUMP JUMPDEST PUSH2 0x51E DUP4 DUP5 PUSH20 0xFFFFFFFFFFFFFFFFFFFFFFFFFFFFFFFFFFFFFFFF AND PUSH4 0xA9059CBB DUP6 DUP6 PUSH1 0x40 MLOAD PUSH1 0x24 ADD PUSH2 0x4D7 SWAP3 SWAP2 SWAP1 PUSH2 0xA90 JUMP JUMPDEST PUSH1 0x40 MLOAD PUSH1 0x20 DUP2 DUP4 SUB SUB DUP2 MSTORE SWAP1 PUSH1 0x40 MSTORE SWAP2 POP PUSH1 0xE0 SHL PUSH1 0x20 DUP3 ADD DUP1 MLOAD PUSH28 0xFFFFFFFFFFFFFFFFFFFFFFFFFFFFFFFFFFFFFFFFFFFFFFFFFFFFFFFF DUP4 DUP2 DUP4 AND OR DUP4 MSTORE POP POP POP POP PUSH2 0x671 JUMP JUMPDEST POP POP POP JUMP JUMPDEST PUSH1 0x0 DUP1 PUSH1 0x0 SWAP1 SLOAD SWAP1 PUSH2 0x100 EXP SWAP1 DIV PUSH20 0xFFFFFFFFFFFFFFFFFFFFFFFFFFFFFFFFFFFFFFFF AND SWAP1 POP DUP2 PUSH1 0x0 DUP1 PUSH2 0x100 EXP DUP2 SLOAD DUP2 PUSH20 0xFFFFFFFFFFFFFFFFFFFFFFFFFFFFFFFFFFFFFFFF MUL NOT AND SWAP1 DUP4 PUSH20 0xFFFFFFFFFFFFFFFFFFFFFFFFFFFFFFFFFFFFFFFF AND MUL OR SWAP1 SSTORE POP DUP2 PUSH20 0xFFFFFFFFFFFFFFFFFFFFFFFFFFFFFFFFFFFFFFFF AND DUP2 PUSH20 0xFFFFFFFFFFFFFFFFFFFFFFFFFFFFFFFFFFFFFFFF AND PUSH32 0x8BE0079C531659141344CD1FD0A4F28419497F9722A3DAAFE3B4186F6B6457E0 PUSH1 0x40 MLOAD PUSH1 0x40 MLOAD DUP1 SWAP2 SUB SWAP1 LOG3 POP POP JUMP JUMPDEST PUSH2 0x663 DUP5 DUP6 PUSH20 0xFFFFFFFFFFFFFFFFFFFFFFFFFFFFFFFFFFFFFFFF AND PUSH4 0x23B872DD DUP7 DUP7 DUP7 PUSH1 0x40 MLOAD PUSH1 0x24 ADD PUSH2 0x61C SWAP4 SWAP3 SWAP2 SWAP1 PUSH2 0xAB9 JUMP JUMPDEST PUSH1 0x40 MLOAD PUSH1 0x20 DUP2 DUP4 SUB SUB DUP2 MSTORE SWAP1 PUSH1 0x40 MSTORE SWAP2 POP PUSH1 0xE0 SHL PUSH1 0x20 DUP3 ADD DUP1 MLOAD PUSH28 0xFFFFFFFFFFFFFFFFFFFFFFFFFFFFFFFFFFFFFFFFFFFFFFFFFFFFFFFF DUP4 DUP2 DUP4 AND OR DUP4 MSTORE POP POP POP POP PUSH2 0x671 JUMP JUMPDEST POP POP POP POP JUMP JUMPDEST PUSH1 0x0 CALLER SWAP1 POP SWAP1 JUMP JUMPDEST PUSH1 0x0 DUP1 PUSH1 0x20 PUSH1 0x0 DUP5 MLOAD PUSH1 0x20 DUP7 ADD PUSH1 0x0 DUP9 GAS CALL DUP1 PUSH2 0x694 JUMPI PUSH1 0x40 MLOAD RETURNDATASIZE PUSH1 0x0 DUP3 RETURNDATACOPY RETURNDATASIZE DUP2 REVERT JUMPDEST RETURNDATASIZE SWAP3 POP PUSH1 0x0 MLOAD SWAP2 POP POP PUSH1 0x0 DUP3 EQ PUSH2 0x6AF JUMPI PUSH1 0x1 DUP2 EQ ISZERO PUSH2 0x6CB JUMP JUMPDEST PUSH1 0x0 DUP5 PUSH20 0xFFFFFFFFFFFFFFFFFFFFFFFFFFFFFFFFFFFFFFFF AND EXTCODESIZE EQ JUMPDEST ISZERO PUSH2 0x70D JUMPI DUP4 PUSH1 0x40 MLOAD PUSH32 0x5274AFE700000000000000000000000000000000000000000000000000000000 DUP2 MSTORE PUSH1 0x4 ADD PUSH2 0x704 SWAP2 SWAP1 PUSH2 0x7FB JUMP JUMPDEST PUSH1 0x40 MLOAD DUP1 SWAP2 SUB SWAP1 REVERT JUMPDEST POP POP POP POP JUMP JUMPDEST PUSH1 0x0 DUP1 REVERT JUMPDEST PUSH1 0x0 PUSH20 0xFFFFFFFFFFFFFFFFFFFFFFFFFFFFFFFFFFFFFFFF DUP3 AND SWAP1 POP SWAP2 SWAP1 POP JUMP JUMPDEST PUSH1 0x0 PUSH2 0x743 DUP3 PUSH2 0x718 JUMP JUMPDEST SWAP1 POP SWAP2 SWAP1 POP JUMP JUMPDEST PUSH2 0x753 DUP2 PUSH2 0x738 JUMP JUMPDEST DUP2 EQ PUSH2 0x75E JUMPI PUSH1 0x0 DUP1 REVERT JUMPDEST POP JUMP JUMPDEST PUSH1 0x0 DUP2 CALLDATALOAD SWAP1 POP PUSH2 0x770 DUP2 PUSH2 0x74A JUMP JUMPDEST SWAP3 SWAP2 POP POP JUMP JUMPDEST PUSH1 0x0 DUP2 SWAP1 POP SWAP2 SWAP1 POP JUMP JUMPDEST PUSH2 0x789 DUP2 PUSH2 0x776 JUMP JUMPDEST DUP2 EQ PUSH2 0x794 JUMPI PUSH1 0x0 DUP1 REVERT JUMPDEST POP JUMP JUMPDEST PUSH1 0x0 DUP2 CALLDATALOAD SWAP1 POP PUSH2 0x7A6 DUP2 PUSH2 0x780 JUMP JUMPDEST SWAP3 SWAP2 POP POP JUMP JUMPDEST PUSH1 0x0 DUP1 PUSH1 0x40 DUP4 DUP6 SUB SLT ISZERO PUSH2 0x7C3 JUMPI PUSH2 0x7C2 PUSH2 0x713 JUMP JUMPDEST JUMPDEST PUSH1 0x0 PUSH2 0x7D1 DUP6 DUP3 DUP7 ADD PUSH2 0x761 JUMP JUMPDEST SWAP3 POP POP PUSH1 0x20 PUSH2 0x7E2 DUP6 DUP3 DUP7 ADD PUSH2 0x797 JUMP JUMPDEST SWAP2 POP POP SWAP3 POP SWAP3 SWAP1 POP JUMP JUMPDEST PUSH2 0x7F5 DUP2 PUSH2 0x738 JUMP JUMPDEST DUP3 MSTORE POP POP JUMP JUMPDEST PUSH1 0x0 PUSH1 0x20 DUP3 ADD SWAP1 POP PUSH2 0x810 PUSH1 0x0 DUP4 ADD DUP5 PUSH2 0x7EC JUMP JUMPDEST SWAP3 SWAP2 POP POP JUMP JUMPDEST PUSH1 0x0 PUSH1 0x20 DUP3 DUP5 SUB SLT ISZERO PUSH2 0x82C JUMPI PUSH2 0x82B PUSH2 0x713 JUMP JUMPDEST JUMPDEST PUSH1 0x0 PUSH2 0x83A DUP5 DUP3 DUP6 ADD PUSH2 0x797 JUMP JUMPDEST SWAP2 POP POP SWAP3 SWAP2 POP POP JUMP JUMPDEST PUSH1 0x0 PUSH1 0x20 DUP3 DUP5 SUB SLT ISZERO PUSH2 0x859 JUMPI PUSH2 0x858 PUSH2 0x713 JUMP JUMPDEST JUMPDEST PUSH1 0x0 PUSH2 0x867 DUP5 DUP3 DUP6 ADD PUSH2 0x761 JUMP JUMPDEST SWAP2 POP POP SWAP3 SWAP2 POP POP JUMP JUMPDEST PUSH1 0x0 DUP2 SWAP1 POP SWAP2 SWAP1 POP JUMP JUMPDEST PUSH1 0x0 PUSH2 0x895 PUSH2 0x890 PUSH2 0x88B DUP5 PUSH2 0x718 JUMP JUMPDEST PUSH2 0x870 JUMP JUMPDEST PUSH2 0x718 JUMP JUMPDEST SWAP1 POP SWAP2 SWAP1 POP JUMP JUMPDEST PUSH1 0x0 PUSH2 0x8A7 DUP3 PUSH2 0x87A JUMP JUMPDEST SWAP1 POP SWAP2 SWAP1 POP JUMP JUMPDEST PUSH1 0x0 PUSH2 0x8B9 DUP3 PUSH2 0x89C JUMP JUMPDEST SWAP1 POP SWAP2 SWAP1 POP JUMP JUMPDEST PUSH2 0x8C9 DUP2 PUSH2 0x8AE JUMP JUMPDEST DUP3 MSTORE POP POP JUMP JUMPDEST PUSH1 0x0 PUSH1 0x20 DUP3 ADD SWAP1 POP PUSH2 0x8E4 PUSH1 0x0 DUP4 ADD DUP5 PUSH2 0x8C0 JUMP JUMPDEST SWAP3 SWAP2 POP POP JUMP JUMPDEST PUSH1 0x0 DUP3 DUP3 MSTORE PUSH1 0x20 DUP3 ADD SWAP1 POP SWAP3 SWAP2 POP POP JUMP JUMPDEST PUSH32 0x526563697069656E7420616464726573732063616E6E6F74206265207A65726F PUSH1 0x0 DUP3 ADD MSTORE POP JUMP JUMPDEST PUSH1 0x0 PUSH2 0x931 PUSH1 0x20 DUP4 PUSH2 0x8EA JUMP JUMPDEST SWAP2 POP PUSH2 0x93C DUP3 PUSH2 0x8FB JUMP JUMPDEST PUSH1 0x20 DUP3 ADD SWAP1 POP SWAP2 SWAP1 POP JUMP JUMPDEST PUSH1 0x0 PUSH1 0x20 DUP3 ADD SWAP1 POP DUP2 DUP2 SUB PUSH1 0x0 DUP4 ADD MSTORE PUSH2 0x960 DUP2 PUSH2 0x924 JUMP JUMPDEST SWAP1 POP SWAP2 SWAP1 POP JUMP JUMPDEST PUSH1 0x0 DUP2 MLOAD SWAP1 POP PUSH2 0x976 DUP2 PUSH2 0x780 JUMP JUMPDEST SWAP3 SWAP2 POP POP JUMP JUMPDEST PUSH1 0x0 PUSH1 0x20 DUP3 DUP5 SUB SLT ISZERO PUSH2 0x992 JUMPI PUSH2 0x991 PUSH2 0x713 JUMP JUMPDEST JUMPDEST PUSH1 0x0 PUSH2 0x9A0 DUP5 DUP3 DUP6 ADD PUSH2 0x967 JUMP JUMPDEST SWAP2 POP POP SWAP3 SWAP2 POP POP JUMP JUMPDEST PUSH32 0x496E73756666696369656E7420636F6E74726163742062616C616E6365000000 PUSH1 0x0 DUP3 ADD MSTORE POP JUMP JUMPDEST PUSH1 0x0 PUSH2 0x9DF PUSH1 0x1D DUP4 PUSH2 0x8EA JUMP JUMPDEST SWAP2 POP PUSH2 0x9EA DUP3 PUSH2 0x9A9 JUMP JUMPDEST PUSH1 0x20 DUP3 ADD SWAP1 POP SWAP2 SWAP1 POP JUMP JUMPDEST PUSH1 0x0 PUSH1 0x20 DUP3 ADD SWAP1 POP DUP2 DUP2 SUB PUSH1 0x0 DUP4 ADD MSTORE PUSH2 0xA0E DUP2 PUSH2 0x9D2 JUMP JUMPDEST SWAP1 POP SWAP2 SWAP1 POP JUMP JUMPDEST PUSH32 0x416D6F756E74206D7573742062652067726561746572207468616E207A65726F PUSH1 0x0 DUP3 ADD MSTORE POP JUMP JUMPDEST PUSH1 0x0 PUSH2 0xA4B PUSH1 0x20 DUP4 PUSH2 0x8EA JUMP JUMPDEST SWAP2 POP PUSH2 0xA56 DUP3 PUSH2 0xA15 JUMP JUMPDEST PUSH1 0x20 DUP3 ADD SWAP1 POP SWAP2 SWAP1 POP JUMP JUMPDEST PUSH1 0x0 PUSH1 0x20 DUP3 ADD SWAP1 POP DUP2 DUP2 SUB PUSH1 0x0 DUP4 ADD MSTORE PUSH2 0xA7A DUP2 PUSH2 0xA3E JUMP JUMPDEST SWAP1 POP SWAP2 SWAP1 POP JUMP JUMPDEST PUSH2 0xA8A DUP2 PUSH2 0x776 JUMP JUMPDEST DUP3 MSTORE POP POP JUMP JUMPDEST PUSH1 0x0 PUSH1 0x40 DUP3 ADD SWAP1 POP PUSH2 0xAA5 PUSH1 0x0 DUP4 ADD DUP6 PUSH2 0x7EC JUMP JUMPDEST PUSH2 0xAB2 PUSH1 0x20 DUP4 ADD DUP5 PUSH2 0xA81 JUMP JUMPDEST SWAP4 SWAP3 POP POP POP JUMP JUMPDEST PUSH1 0x0 PUSH1 0x60 DUP3 ADD SWAP1 POP PUSH2 0xACE PUSH1 0x0 DUP4 ADD DUP7 PUSH2 0x7EC JUMP JUMPDEST PUSH2 0xADB PUSH1 0x20 DUP4 ADD DUP6 PUSH2 0x7EC JUMP JUMPDEST PUSH2 0xAE8 PUSH1 0x40 DUP4 ADD DUP5 PUSH2 0xA81 JUMP JUMPDEST SWAP5 SWAP4 POP POP POP POP JUMP INVALID LOG2 PUSH5 0x6970667358 0x22 SLT KECCAK256 MSIZE 0xD8 0xC8 EXTCODEHASH SAR 0xB8 0xC7 DUP2 0xE1 0xBE 0xA8 PUSH8 0x3240EE8FA8EAE355 INVALID 0xCD DUP6 0xD9 0xB0 EQ PUSH1 0x8C SMOD DUP15 SWAP14 STOP PUSH5 0x736F6C6343 STOP ADDMOD EQ STOP CALLER "},"methodIdentifiers":{"deposit(uint256)":"b6b55f25","owner()":"8da5cb5b","release(address,uint256)":"0357371d","renounceOwnership()":"715018a6","token()":"fc0c546a","transferOwnership(address)":"f2fde38b"}}}}}